:0400000038EF00F0E5
:060008005382EEED08F04A
:100018005380D8CF01F0E8CF02F0E0CF03F0F2A090
:1000280018EF00F01AEF00F030EF00F081CF04F085
:10003800F29081AA22EF00F024EF00F026EF00F002
:100048004E4A4F2A81AE2BEF00F02DEF00F02FEF34
:1000580000F030EF00F0815003C0E0FF02C0E8FF7D
:0C00680001C0D8FF53901000A2EF08F078
:1008000000426C616E6361733D004D6F64756C6F87
:0508100000256400005A
:100816001050D96EDA6ADFCFF6FF080EF76E0800C1
:10082600F550250AD8A41AEF04F01CEF04F0D5EF12
:1008360004F01050D96EDA6ADF2A000E496E000EF7
:10084600486E48C052F04A684B681050D96EDA6A52
:10085600DF50146E14C0F6FF080EF76E0800F55050
:10086600640AD8B439EF04F03BEF04F049EF04F022
:1008760014C0F6FF080EF76E0800F550690AD8A4F2
:1008860047EF04F049EF04F0CFEF04F01150D96EB2
:10089600DA6A020EDF26DF5CD96EDA6ADECF15F081
:1008A600DECF16F01050D96EDA6A1428DF6E200EED
:1008B600196E16BE61EF04F064EF04F0010E65EFE9
:1008C60004F0000E136E19061950600FD96EDA6A1D
:1008D60015C005F016C006F0000E086E0A0E076E6B
:1008E60087EC06F005C00BF006C00CF088EC08F0AB
:1008F6000B50300FDF6E15C005F016C006F0000E67
:10090600086E0A0E076E26EC06F005C015F006C046
:1009160016F015501610D8B493EF04F095EF04F0C6
:100926009DEF04F01950D8A49BEF04F09DEF04F05E
:1009360066EF04F01950D8B4A3EF04F0A5EF04F065
:10094600C4EF04F01350D8B4ABEF04F0ADEF04F0ED
:10095600C4EF04F019061950600FD96EDA6A2D0E2D
:10096600DF6EC4EF04F01950600FD96EDA6ADF50FB
:10097600126E1250056E066A0FC007F0DEEC06F026
:10098600192A200E1918D8A4CBEF04F0CDEF04F0E5
:10099600B6EF04F0E6EF04F01050D96EDA6ADF2AFB
:1009A600E6EF04F01050D96EDA6ADFCFF6FF080ED4
:1009B600F76E0800F550056E066A0FC007F0DEEC0C
:1009C60006F0CFEF04F01200000E476E000E466EE2
:1009D600E0EC08F0D5EC08F033EC07F0000EC5ECBF
:1009E60008F00D0E446EFC0EE82EFED7442EFCD702
:1009F6000E0EC5EC08F012EC08F0B3EC07F081A07F
:100A060007EF05F009EF05F002EF05F08D8281A2F0
:100A16000FEF05F011EF05F00AEF05F08D928D84CA
:100A260081A618EF05F01AEF05F013EF05F08D9487
:100A3600080E456E9D0E446E060EE82EFED7442E19
:100A4600FCD7452EFAD78982060E456E130E446EE4
:100A5600AE0EE82EFED7442EFCD7452EFAD7898453
:100A660082A238EF05F03AEF05F033EF05F08992F0
:100A760081A840EF05F042EF05F03BEF05F08980D5
:100A860081A448EF05F04AEF05F043EF05F08982AF
:100A960089900B0E456E260E446E5E0EE82EFED72E
:100AA600442EFCD7452EFAD7899482B25DEF05F025
:100AB6005FEF05F058EF05F0899281A865EF05F024
:100AC60067EF05F060EF05F08986410E446EEE0E85
:100AD600E82EFED7442EFCD700D082EF05F082B078
:100AE60077EF05F079EF05F072EF05F082A07EEF63
:100AF60005F080EF05F079EF05F0464A472A47BE34
:100B06008EEF05F0475009E1020E465CD8A08EEF45
:100B160005F090EF05F072EF05F08996898882A4BA
:100B260097EF05F099EF05F092EF05F08998898C1B
:100B36000B0E456E260E446E5E0EE82EFED7442E34
:100B4600FCD7452EFAD7898A82ACACEF05F0AEEF1A
:100B560005F0A7EF05F0899A030E456E8A0E446EDE
:100B6600560EE82EFED7442EFCD7452EFAD7899C82
:100B760038EF00F0096E0904D8A4C4EF05F0C6EFFB
:100B860005F0D7EF05F008507F0F0C6E0C380F0BF1
:100B96000A6E0C500F0B0B6E0A50C5EC08F00B508A
:100BA600C5EC08F025EF06F0020E0918D8A4DEEF12
:100BB60005F0E0EF05F0F1EF05F00850BF0F0C6E01
:100BC6000C380F0B0A6E0C500F0B0B6E0A50C5EC4F
:100BD60008F00B50C5EC08F025EF06F0030E0918D7
:100BE600D8A4F8EF05F0FAEF05F00BEF06F0085081
:100BF600930F0C6E0C380F0B0A6E0C500F0B0B6E0E
:100C06000A50C5EC08F00B50C5EC08F025EF06F0CD
:100C1600040E0918D8A412EF06F014EF06F025EF1B
:100C260006F00850D30F0C6E0C380F0B0A6E0C50E2
:100C36000F0B0B6E0A50C5EC08F00B50C5EC08F014
:100C460025EF06F012000A6A08BE2EEF06F02CEF1A
:100C560006F034EF06F0076C081ED8B0082A010E1D
:100C66000A6E06BE3BEF06F039EF06F041EF06F0DE
:100C7600056C061ED8B0062A010E0A1A000E0C6E66
:100C8600000E0B6E07500810D8B44CEF06F04EEF6E
:100C960006F076EF06F0010E096E56EF06F0D890D4
:100CA60007360836092A08AE5BEF06F05DEF06F058
:100CB60052EF06F0D8900B360C360750055C0850FC
:100CC6000658D8A069EF06F06BEF06F070EF06F055
:100CD6000750055E0850065A0B80D8900832073236
:100CE600092E5DEF06F00A50D8B47CEF06F07EEFD1
:100CF60006F082EF06F00B6C0C1ED8B00C2A0BC067
:100D060005F00CC006F012000A6A06BE8FEF06F068
:100D16008DEF06F095EF06F0056C061ED8B0062A94
:100D2600010E0A6E08BE9CEF06F09AEF06F0A0EFE1
:100D360006F0076C081ED8B0082A07500810D8B469
:100D4600A7EF06F0A9EF06F0CDEF06F0010E096E4B
:100D5600B1EF06F0D89007360836092A08AEB6EF86
:100D660006F0B8EF06F0ADEF06F00750055C085048
:100D76000658D8A0C1EF06F0C3EF06F0C7EF06F09D
:100D86000750055E0850065AD89008320732092ED9
:100D9600B8EF06F00A50D8B4D3EF06F0D5EF06F058
:100DA600D9EF06F0056C061ED8B0062A05C005F078
:100DB60006C006F012000750D8B4E4EF06F0E6EFDE
:100DC60006F0EEEF06F00750D8A4ECEF06F0EEEFD3
:100DD60006F0F3EF06F00550F1EC08F032EF07F0FD
:100DE6000750D96EDA6A090ED926DE50DE10D8B45D
:100DF600FFEF06F001EF07F01AEF07F00750D96E84
:100E0600DA6A090ED9260750E16EE26A020EE12679
:100E1600DE50E65CE650800A0C6EDE50800A0C5806
:100E2600D8B018EF07F01AEF07F032EF07F00750C7
:100E3600D96EDA6A020ED926DF50086E0750D96ECF
:100E4600DA6ADF500824D96EDA6A05C0DFFF075078
:100E5600D96EDA6A020ED926DE2A000EDD221200CB
:100E6600959495969598959A959C959E000EE4EC8A
:100E760007F01A0E086EF80EE82EFED7082EFCD7DD
:100E860000D0030EC5EC08F0070E086E7D0EE82EA6
:100E9600FED7082EFCD70000030EC5EC08F00F0E97
:100EA600086E480EE82EFED7082EFCD7030EC5ECBA
:100EB60008F0020EC5EC08F0020EC5EC08F0080EAC
:100EC600C5EC08F0000EC5EC08F00C0EC5EC08F0F9
:100ED600000EC5EC08F0060EC5EC08F0E7EC08F0CD
:100EE6001200000E0E6E000E0D6E94EF07F00D5000
:100EF60009240B6E0E500A200C6E0BC0F6FF0CC0B8
:100F0600F7FFF86A070EF76403D00800F55005D01E
:100F1600F6CFE1FFF7CFE2FFE75052EC08F00D4ABB
:100F26000E2A0D5009240B6E0E500A200C6E0BC0B3
:100F3600F6FF0CC0F7FFF86A070EF76403D0080047
:100F4600F55005D0F6CFE1FFF7CFE2FFE7500009F5
:100F5600D8A4B0EF07F0B2EF07F07AEF07F012006F
:100F660082B0B8EF07F0BAEF07F0C3EF07F0898653
:100F760082A0C0EF07F0C2EF07F0BBEF07F089963B
:100F860081B4C8EF07F0CAEF07F0D3EF07F0898006
:100F960081A4D0EF07F0D2EF07F0CBEF07F08990EE
:100FA60082BCD8EF07F0DAEF07F0E3EF07F0898AA3
:100FB60082ACE0EF07F0E2EF07F0DBEF07F0899A8B
:100FC6001200056E05A0EAEF07F0ECEF07F0EFEF71
:100FD60007F08C88F0EF07F08C9805A2F5EF07F084
:100FE600F7EF07F0FAEF07F08C8AFBEF07F08C9A21
:100FF60005A400EF08F002EF08F005EF08F08C8C6E
:1010060006EF08F08C9C05A60BEF08F00DEF08F034
:1010160010EF08F08C8E11EF08F08C9E12000A0E6D
:10102600096E0950D8A4080E0A6E74EC07F0010E7A
:10103600086E020EBDEC05F0010E096E0950D8A42B
:10104600080E0A6E74EC07F0000E2F6E000E2E6E60
:10105600B5EC08F0000E086E030EBDEC05F01200AC
:101066001BC01DF03FEF08F01AC00FF01D0E106EEA
:101076001CC011F00BEC04F01DC0F6FF080EF76E55
:101086000800F5500009D8A44BEF08F04DEF08F022
:1010960037EF08F0000E1B6E000E1A6E1200086E77
:1010A60008500F0B066E0850F00B076E8C8407383D
:1010B6000F0BE4EC07F08C860D0EE82EFED7000031
:1010C6008C960650E4EC07F08C860D0EE82EFED7C3
:1010D60000008C961200200E226E1EC023F0000E19
:1010E600266E000E256E000E2D6E000E2C6E230E43
:1010F6001A6E1FC01BF0220E1C6E33EC08F01E5039
:101106002524D96EDA6ADF6A12000CBE8DEF08F06C
:101116008FEF08F095EF08F00BC00BF00CC00CF049
:10112600A1EF08F00BC00DF00CC00EF00D1E0E1E48
:101136000D4A0E2A0DC00BF00EC00CF0120000EE88
:1011460060F0200EEE6AE806FDE100EE48F00B0EB8
:10115600EE6AE806FDE153905392000EF86E000128
:10116600E7EF04F0300E1E6E110E1F6E2EC020F03B
:101176002FC021F06EEC08F0300E096E0A6A74EC8E
:1011860007F01200076E8C940750E4EC07F08C868B
:10119600060E066E300EE82EFED7062EFCD700D0C1
:1011A6008C9612000F0EC1129368926A896A956A2C
:1011B600966A96808D6A94681200F29EF29CF28678
:1011C600F290D08EF1901200000EC5EC08F0010EE0
:0E11D600C5EC08F01200060053921100120042
:020000040030CA
:0E0000000008191EFF00A0FF0FC00FE00F4008
:00000001FF
