:040000001DEF00F000
:06000800598272ED0AF0BE
:100018005980E0CF01F0F2A014EF00F016EF00F0E5
:1000280019EF00F081CF02F0F29001C0E0FF599083
:06003800100025EF0AF0A4
:1008000000496E696369616C697A616E646F004D5D
:100810004554414C49434100424C414E4341004EF6
:10082000454752410043494E54410050494E5A41B8
:1008300000504C41544F005354415254004E4144D7
:10084000410020423A00204E3A004D3A0025640013
:0108500000A7
:10085200000E456E000E446E64EC0AF058EC0AF08D
:10086200D7EC08F0000E48EC0AF00D0E426EFC0EBA
:10087200E82EFED7422EFCD70E0E48EC0AF0010EEF
:10088200066E010E61EC07F0000E4B6E010E4A6E11
:1008920089EC05F057EC09F0060E436E130E426E1A
:1008A200AE0EE82EFED7422EFCD7432EFAD7000E0C
:1008B2004B6E020E4A6E89EC05F081A063EF04F0E4
:1008C20065EF04F05EEF04F08C80000E4B6E030EB9
:1008D2004A6E89EC05F082AE71EF04F073EF04F01A
:1008E2006CEF04F0000E4B6E040E4A6E89EC05F0BC
:1008F2008C908C8481A480EF04F082EF04F07BEF73
:1009020004F08C94080E436E9D0E426E060EE82E85
:10091200FED7422EFCD7432EFAD78988060E436EA5
:10092200130E426EAE0EE82EFED7422EFCD7432E99
:10093200FAD7898A81A8A0EF04F0A2EF04F09BEF16
:1009420004F0899881A6A8EF04F0AAEF04F0A3EFBF
:1009520004F08C8681A2B0EF04F0B2EF04F0ABEFAA
:1009620004F089888C960B0E436E260E426E5E0E44
:10097200E82EFED7422EFCD7432EFAD7899A81B8A9
:10098200C5EF04F0C7EF04F0C0EF04F0000E4B6EA9
:10099200050E4A6E89EC05F0899881A6D3EF04F022
:1009A200D5EF04F0CEEF04F0898C410E426EEE0ECC
:1009B200E82EFED7422EFCD700D014EF05F081BA04
:1009C200E5EF04F0E7EF04F0E0EF04F081BEECEFB6
:1009D20004F0EEEF04F0F9EF04F080B2F3EF04F06C
:1009E200F5EF04F0F9EF04F0000E516E010E506EB7
:1009F20080A2FEEF04F000EF05F00BEF05F081AEF0
:100A020005EF05F007EF05F00BEF05F0000E4D6E58
:100A1200010E4C6E81AA10EF05F012EF05F00BEFFC
:100A220005F0444A452A45BE20EF05F0455009E14C
:100A3200020E445CD8A020EF05F022EF05F0E0EFB3
:100A420004F050045110D8A429EF05F02BEF05F063
:100A52002DEF05F0544A552A4C044D10D8A434EF1A
:100A620005F036EF05F038EF05F0524A532A4C50A4
:100A72004D10D8A43FEF05F041EF05F04CEF05F023
:100A820050505110D8A448EF05F04AEF05F04CEF52
:100A920005F0564A572A89EC05F0899C8B8080A480
:100AA20055EF05F057EF05F050EF05F08B90000E73
:100AB2004B6E060E4A6E89EC05F08B8C0B0E436E64
:100AC200260E426E5E0EE82EFED7422EFCD7432E35
:100AD200FAD78B8280A670EF05F072EF05F06BEF0C
:100AE20005F08B92030E436E8A0E426E560EE82E6E
:100AF200FED7422EFCD7432EFAD78B9C000E4D6EAA
:100B0200000E4C6E000E516E000E506E1DEF00F086
:100B12006BEC0AF0010E066E010E61EC07F04A045E
:100B22004B10D8A497EF05F099EF05F0A1EF05F06F
:100B3200010E076E0750D8A4080E086E18EC09F0D3
:100B4200020E4A184B10D8A4A9EF05F0ABEF05F03E
:100B5200B3EF05F0370E076E0750D8A4080E086EE3
:100B620018EC09F0030E4A184B10D8A4BBEF05F09D
:100B7200BDEF05F0C5EF05F0250E076E0750D8A4AE
:100B8200080E086E18EC09F0040E4A184B10D8A48F
:100B9200CDEF05F0CFEF05F0D7EF05F02B0E076E86
:100BA2000750D8A4080E086E18EC09F0050E4A1872
:100BB2004B10D8A4DFEF05F0E1EF05F0E9EF05F007
:100BC200310E076E0750D8A4080E086E18EC09F013
:100BD200060E4A184B10D8A4F1EF05F0F3EF05F01A
:100BE200FBEF05F0250E076E0750D8A4080E086E1D
:100BF20018EC09F0010E066E020E61EC07F04BBE16
:100C02000CEF06F04B5009E1050E4A5CD8A00CEF40
:100C120006F00EEF06F04CEF06F050045110D8A487
:100C220015EF06F017EF06F01FEF06F01F0E076E26
:100C32000750D8A4080E086E18EC09F04C044D10A9
:100C4200D8A426EF06F028EF06F030EF06F00F0EDC
:100C5200076E0750D8A4080E086E18EC09F04C5025
:100C62004D10D8A437EF06F039EF06F054EF06F036
:100C720050505110D8A440EF06F042EF06F054EF66
:100C820006F0180E076E0750D8A4080E086E18EC6E
:100C920009F054EF06F03D0E076E0750D8A4080E77
:100CA200086E18EC09F0090E48EC0AF0000E48EC48
:100CB2000AF04A0E076E0750D8A4080E086E18EC08
:100CC20009F052C02CF053C02DF038EC0AF0420E5D
:100CD200076E0750D8A4080E086E18EC09F056C02B
:100CE2002CF057C02DF038EC0AF0460E076E075074
:100CF200D8A4080E086E18EC09F054C02CF055C0A8
:100D02002DF038EC0AF012000E50D96EDA6ADFCFFD
:100D1200F6FF080EF76E0800F550250AD8A494EFE6
:100D220006F096EF06F04FEF07F00E50D96EDA6A32
:100D3200DF2A000E476E000E466E46C058F0486825
:100D420049680E50D96EDA6ADF50126E12C0F6FF91
:100D5200080EF76E0800F550640AD8B4B3EF06F037
:100D6200B5EF06F0C3EF06F012C0F6FF080EF76EFD
:100D72000800F550690AD8A4C1EF06F0C3EF06F0E7
:100D820049EF07F00F50D96EDA6A020EDF26DF5CF8
:100D9200D96EDA6ADECF13F0DECF14F00E50D96EC0
:100DA200DA6A1228DF6E200E176E14BEDBEF06F031
:100DB200DEEF06F0010EDFEF06F0000E116E1706F1
:100DC2001750600FD96EDA6A13C003F014C004F032
:100DD200000E066E0A0E056E2BEC08F003C009F039
:100DE20004C00AF00BEC0AF00950300FDF6E13C09A
:100DF20003F014C004F0000E066E0A0E056ECAEC73
:100E020007F003C013F004C014F013501410D8B448
:100E12000DEF07F00FEF07F017EF07F01750D8A408
:100E220015EF07F017EF07F0E0EF06F01750D8B410
:100E32001DEF07F01FEF07F03EEF07F01150D8B497
:100E420025EF07F027EF07F03EEF07F017061750E0
:100E5200600FD96EDA6A2D0EDF6E3EEF07F0175083
:100E6200600FD96EDA6ADF50106E1050036E046A9A
:100E72000DC005F082EC08F0172A200E1718D8A42E
:100E820045EF07F047EF07F030EF07F060EF07F0AC
:100E92000E50D96EDA6ADF2A60EF07F00E50D96E73
:100EA200DA6ADFCFF6FF080EF76E0800F550036E20
:100EB200046A0DC005F082EC08F049EF07F0120059
:100EC200076E0704D8A468EF07F06AEF07F07BEF1C
:100ED20007F006507F0F0A6E0A380F0B086E0A5091
:100EE2000F0B096E085048EC0AF0095048EC0AF062
:100EF200C9EF07F0020E0718D8A482EF07F084EFBB
:100F020007F095EF07F00650BF0F0A6E0A380F0B75
:100F1200086E0A500F0B096E085048EC0AF009508F
:100F220048EC0AF0C9EF07F0030E0718D8A49CEFAB
:100F320007F09EEF07F0AFEF07F00650930F0A6E2F
:100F42000A380F0B086E0A500F0B096E085048EC56
:100F52000AF0095048EC0AF0C9EF07F0040E07182E
:100F6200D8A4B6EF07F0B8EF07F0C9EF07F00650C4
:100F7200D30F0A6E0A380F0B086E0A500F0B096E58
:100F8200085048EC0AF0095048EC0AF0C9EF07F0A3
:100F92001200086A06BED2EF07F0D0EF07F0D8EFD2
:100FA20007F0056C061ED8B0062A010E086E04BEB4
:100FB200DFEF07F0DDEF07F0E5EF07F0036C041E4B
:100FC200D8B0042A010E081A000E0A6E000E096E2D
:100FD20005500610D8B4F0EF07F0F2EF07F01AEF61
:100FE20008F0010E076EFAEF07F0D89005360636C4
:100FF200072A06AEFFEF07F001EF08F0F6EF07F061
:10100200D89009360A360550035C06500458D8A019
:101012000DEF08F00FEF08F014EF08F00550035E33
:101022000650045A0980D89006320532072E01EF85
:1010320008F00850D8B420EF08F022EF08F026EFAD
:1010420008F0096C0A1ED8B00A2A09C003F00AC0C7
:1010520004F01200086A04BE33EF08F031EF08F022
:1010620039EF08F0036C041ED8B0042A010E086E92
:1010720006BE40EF08F03EEF08F044EF08F0056CC2
:10108200061ED8B0062A05500610D8B44BEF08F059
:101092004DEF08F071EF08F0010E076E55EF08F002
:1010A200D89005360636072A06AE5AEF08F05CEFEE
:1010B20008F051EF08F00550035C06500458D8A020
:1010C20065EF08F067EF08F06BEF08F00550035E7C
:1010D2000650045AD89006320532072E5CEF08F00B
:1010E2000850D8B477EF08F079EF08F07DEF08F0F8
:1010F200036C041ED8B0042A03C003F004C004F039
:1011020012000550D8B488EF08F08AEF08F092EF89
:1011120008F00550D8A490EF08F092EF08F097EF8E
:1011220008F0035075EC0AF0D6EF08F00550D96EBE
:10113200DA6A090ED926DE50DE10D8B4A3EF08F021
:10114200A5EF08F0BEEF08F00550D96EDA6A090E75
:10115200D9260550E16EE26A020EE126DE50E65C17
:10116200E650800A0A6EDE50800A0A58D8B0BCEFF8
:1011720008F0BEEF08F0D6EF08F00550D96EDA6A33
:10118200020ED926DF50066E0550D96EDA6ADF509C
:101192000624D96EDA6A03C0DFFF0550D96EDA6A17
:1011A200020ED926DE2A000EDD22120096929690B9
:1011B2009598959A959C959E000E88EC09F01A0ECA
:1011C200066EF80EE82EFED7062EFCD700D0030ED0
:1011D20048EC0AF0070E066E7D0EE82EFED7062EAC
:1011E200FCD70000030E48EC0AF00F0E066E480E04
:1011F200E82EFED7062EFCD7030E48EC0AF0020EAC
:1012020048EC0AF0020E48EC0AF0080E48EC0AF02C
:10121200000E48EC0AF00C0E48EC0AF0000E48EC06
:101222000AF0060E48EC0AF06BEC0AF01200000E0F
:101232000C6E000E0B6E38EF09F00B500724096E8E
:101242000C5008200A6E09C0F6FF0AC0F7FFF86AC0
:10125200070EF76403D00800F55005D0F6CFE1FF82
:10126200F7CFE2FFE750D5EC09F00B4A0C2A0B50FE
:101272000724096E0C5008200A6E09C0F6FF0AC046
:10128200F7FFF86A070EF76403D00800F55005D09F
:10129200F6CFE1FFF7CFE2FFE7500009D8A454EF01
:1012A20009F056EF09F01EEF09F0120081BA5CEF67
:1012B20009F05EEF09F067EF09F0898C81AA64EF0B
:1012C20009F066EF09F05FEF09F0899C81B26CEFDB
:1012D20009F06EEF09F077EF09F08C8681A274EFC6
:1012E20009F076EF09F06FEF09F08C9680B67CEF8B
:1012F20009F07EEF09F087EF09F08B8280A684EF78
:1013020009F086EF09F07FEF09F08B921200036E6D
:1013120003A08EEF09F090EF09F093EF09F08C88AB
:1013220094EF09F08C9803A299EF09F09BEF09F072
:101332009EEF09F08C8A9FEF09F08C9A03A4A4EF28
:1013420009F0A6EF09F0A9EF09F08C8CAAEF09F0D9
:101352008C9C03A6AFEF09F0B1EF09F0B4EF09F0EE
:101362008C8EB5EF09F08C9E120019C01BF0C2EFF3
:1013720009F018C00DF01B0E0E6E1AC00FF085ECAE
:1013820006F01BC0F6FF080EF76E0800F5500009C4
:10139200D8A4CEEF09F0D0EF09F0BAEF09F0000EB1
:1013A200196E000E186E1200066E06500F0B046EB8
:1013B2000650F00B056E8D8205380F0B88EC09F094
:1013C2008D800D0EE82EFED700008D90045088EC23
:1013D20009F08D800D0EE82EFED700008D901200D0
:1013E2001E0E206E1CC021F0000E246E000E236E15
:1013F200000E2B6E000E2A6E210E186E1DC019F003
:10140200200E1A6EB6EC09F01C502324D96EDA6A4B
:10141200DF6A12000ABE10EF0AF012EF0AF018EFAC
:101422000AF009C009F00AC00AF024EF0AF009C064
:101432000BF00AC00CF00B1E0C1E0B4A0C2A0BC040
:1014420009F00CC00AF0120000EE60F0200EEE6A05
:10145200E806FDE100EE46F0130EEE6AE806FDE155
:1014620059905992000EF86E000129EF04F02E0EE9
:101472001C6E4D0E1D6E2CC01EF02DC01FF0F1EC27
:1014820009F02E0E076E086A18EC09F01200056EBC
:101492008D92055088EC09F08D80060E046E300E98
:1014A200E82EFED7042EFCD700D08D9012000F0E2E
:1014B200C11293680F0E926E896A956A966A8D6A56
:1014C200946A948E1200F29EF29CF296F290D09E52
:1014D200F1901200000E48EC0AF0010E48EC0AF0FE
:0A14E20012000600599211001200DA
:020000040030CA
:0E0000000008191EFF00A0FF0FC00FE00F4008
:00000001FF
