:040000001DEF00F000
:06000800528242ED0AF0F5
:100018005280E0CF01F0F2A014EF00F016EF00F0EC
:1000280019EF00F081CF02F0F29001C0E0FF52908A
:060038001000F5EF09F0D5
:1008000000496E696369616C697A616E646F004D5D
:100810004554414C49434100424C414E4341004EF6
:10082000454752410043494E54410050494E5A41B8
:1008300000504C41544F005354415254004E4144D7
:10084000410020423A00204E3A004D3A0025640013
:0108500000A7
:10085200000E456E000E446E34EC0AF028EC0AF0ED
:10086200A7EC08F0000E18EC0AF00D0E426EFC0E1A
:10087200E82EFED7422EFCD70E0E18EC0AF0010E1F
:10088200066E010E31EC07F0010E4B6E6CEC05F0BA
:1008920027EC09F0060E436E130E426EAE0EE82EE2
:1008A200FED7422EFCD7432EFAD7020E4B6E6CECCB
:1008B20005F081A05FEF04F061EF04F05AEF04F05D
:1008C2008C80030E4B6E6CEC05F082AE6BEF04F085
:1008D2006DEF04F066EF04F0040E4B6E6CEC05F065
:1008E2008C908C8481B478EF04F07AEF04F073EF8B
:1008F20004F08C94080E436E9D0E426E060EE82E96
:10090200FED7422EFCD7432EFAD78988060E436EB5
:10091200130E426EAE0EE82EFED7422EFCD7432EA9
:10092200FAD7898A81B898EF04F09AEF04F093EF2E
:1009320004F0899881B6A0EF04F0A2EF04F09BEFD7
:1009420004F08C8681B2A8EF04F0AAEF04F0A3EFC2
:1009520004F089888C960B0E436E260E426E5E0E54
:10096200E82EFED7422EFCD7432EFAD7899A81B8B9
:10097200BDEF04F0BFEF04F0B8EF04F0050E4B6ECC
:100982006CEC05F0899881B6C9EF04F0CBEF04F066
:10099200C4EF04F0898C410E426EEE0EE82EFED7B3
:1009A200422EFCD700D006EF05F081AADBEF04F05F
:1009B200DDEF04F0D6EF04F081AEE2EF04F0E4EFF5
:1009C20004F0EDEF04F080A2E9EF04F0EBEF04F0A5
:1009D200EDEF04F0010E4E6E80B2F2EF04F0F4EF90
:1009E20004F0FDEF04F081BEF9EF04F0FBEF04F038
:1009F200FDEF04F0010E4C6E81BA02EF05F004EF38
:100A020005F0FDEF04F0444A452A45BE12EF05F019
:100A1200455009E1020E445CD8A012EF05F014EF34
:100A220005F0D6EF04F04E04D8A41AEF05F01CEF3F
:100A320005F01DEF05F0502A4C04D8A423EF05F071
:100A420025EF05F026EF05F04F2A4C50D8A42CEFE5
:100A520005F02EEF05F037EF05F04E50D8A434EF35
:100A620005F036EF05F037EF05F0512A6CEC05F092
:100A7200899C8B8080B440EF05F042EF05F03BEF9C
:100A820005F08B90060E4B6E6CEC05F08B8C0B0E0A
:100A9200436E260E426E5E0EE82EFED7422EFCD725
:100AA200432EFAD78B8280B659EF05F05BEF05F043
:100AB20054EF05F08B92030E436E8A0E426E560E71
:100AC200E82EFED7422EFCD7432EFAD78B9C4C6AD7
:100AD2004E6A1DEF00F03BEC0AF0010E066E010EAD
:100AE20031EC07F04B04D8A479EF05F07BEF05F069
:100AF20083EF05F0010E076E0750D8A4080E086EAA
:100B0200E8EC08F0020E4B18D8A48AEF05F08CEF3F
:100B120005F094EF05F0370E076E0750D8A4080EC3
:100B2200086EE8EC08F0030E4B18D8A49BEF05F012
:100B32009DEF05F0A5EF05F0250E076E0750D8A42E
:100B4200080E086EE8EC08F0040E4B18D8A4ACEFBF
:100B520005F0AEEF05F0B6EF05F02B0E076E07506D
:100B6200D8A4080E086EE8EC08F0050E4B18D8A4BD
:100B7200BDEF05F0BFEF05F0C7EF05F0310E076ED0
:100B82000750D8A4080E086EE8EC08F0060E4B18C1
:100B9200D8A4CEEF05F0D0EF05F0D8EF05F0250E82
:100BA200076E0750D8A4080E086EE8EC08F0010E94
:100BB200066E020E31EC07F0040E4B64E3EF05F013
:100BC200E5EF05F01FEF06F04E04D8A4EBEF05F0B9
:100BD200EDEF05F0F5EF05F01F0E076E0750D8A4F4
:100BE200080E086EE8EC08F04C04D8A4FBEF05F000
:100BF200FDEF05F005EF06F00F0E076E0750D8A4C3
:100C0200080E086EE8EC08F04C50D8A40BEF06F082
:100C12000DEF06F027EF06F04E50D8A413EF06F0C2
:100C220015EF06F027EF06F0180E076E0750D8A44E
:100C3200080E086EE8EC08F027EF06F03D0E076E8E
:100C42000750D8A4080E086EE8EC08F0090E18EC5C
:100C52000AF0000E18EC0AF04A0E076E0750D8A4EC
:100C6200080E086EE8EC08F04FC02CF02D6A08EC74
:100C72000AF0420E076E0750D8A4080E086EE8EC80
:100C820008F051C02CF02D6A08EC0AF0460E076EEF
:100C92000750D8A4080E086EE8EC08F050C02CF0FB
:100CA2002D6A08EC0AF012000E50D96EDA6ADFCF14
:100CB200F6FF080EF76E0800F550250AD8A464EF77
:100CC20006F066EF06F01FEF07F00E50D96EDA6AF3
:100CD200DF2A000E476E000E466E46C04AF0486894
:100CE20049680E50D96EDA6ADF50126E12C0F6FFF2
:100CF200080EF76E0800F550640AD8B483EF06F0C8
:100D020085EF06F093EF06F012C0F6FF080EF76EBD
:100D12000800F550690AD8A491EF06F093EF06F0A7
:100D220019EF07F00F50D96EDA6A020EDF26DF5C88
:100D3200D96EDA6ADECF13F0DECF14F00E50D96E20
:100D4200DA6A1228DF6E200E176E14BEABEF06F0C1
:100D5200AEEF06F0010EAFEF06F0000E116E1706B1
:100D62001750600FD96EDA6A13C003F014C004F092
:100D7200000E066E0A0E056EFBEC07F003C009F0CA
:100D820004C00AF0DBEC09F00950300FDF6E13C02B
:100D920003F014C004F0000E066E0A0E056E9AEC03
:100DA20007F003C013F004C014F013501410D8B4A9
:100DB200DDEF06F0DFEF06F0E7EF06F01750D8A4FC
:100DC200E5EF06F0E7EF06F0B0EF06F01750D8B403
:100DD200EDEF06F0EFEF06F00EEF07F01150D8B48A
:100DE200F5EF06F0F7EF06F00EEF07F017061750D3
:100DF200600FD96EDA6A2D0EDF6E0EEF07F0175014
:100E0200600FD96EDA6ADF50106E1050036E046AFA
:100E12000DC005F052EC08F0172A200E1718D8A4BE
:100E220015EF07F017EF07F000EF07F030EF07F0CC
:100E32000E50D96EDA6ADF2A30EF07F00E50D96E03
:100E4200DA6ADFCFF6FF080EF76E0800F550036E80
:100E5200046A0DC005F052EC08F019EF07F0120019
:100E6200076E0704D8A438EF07F03AEF07F04BEF0C
:100E720007F006507F0F0A6E0A380F0B086E0A50F1
:100E82000F0B096E085018EC0AF0095018EC0AF022
:100E920099EF07F0020E0718D8A452EF07F054EFAB
:100EA20007F065EF07F00650BF0F0A6E0A380F0B06
:100EB200086E0A500F0B096E085018EC0AF0095020
:100EC20018EC0AF099EF07F0030E0718D8A46CEF9C
:100ED20007F06EEF07F07FEF07F00650930F0A6EF0
:100EE2000A380F0B086E0A500F0B096E085018ECE7
:100EF2000AF0095018EC0AF099EF07F0040E0718EF
:100F0200D8A486EF07F088EF07F099EF07F00650B4
:100F1200D30F0A6E0A380F0B086E0A500F0B096EB8
:100F2200085018EC0AF0095018EC0AF099EF07F093
:100F32001200086A06BEA2EF07F0A0EF07F0A8EFC2
:100F420007F0056C061ED8B0062A010E086E04BE14
:100F5200AFEF07F0ADEF07F0B5EF07F0036C041E3B
:100F6200D8B0042A010E081A000E0A6E000E096E8D
:100F720005500610D8B4C0EF07F0C2EF07F0EAEF51
:100F820007F0010E076ECAEF07F0D8900536063655
:100F9200072A06AECFEF07F0D1EF07F0C6EF07F052
:100FA200D89009360A360550035C06500458D8A07A
:100FB200DDEF07F0DFEF07F0E4EF07F00550035E27
:100FC2000650045A0980D89006320532072ED1EF16
:100FD20007F00850D8B4F0EF07F0F2EF07F0F6EFA1
:100FE20007F0096C0A1ED8B00A2A09C003F00AC029
:100FF20004F01200086A04BE03EF08F001EF08F0E3
:1010020009EF08F0036C041ED8B0042A010E086E22
:1010120006BE10EF08F00EEF08F014EF08F0056CB2
:10102200061ED8B0062A05500610D8B41BEF08F0E9
:101032001DEF08F041EF08F0010E076E25EF08F0F2
:10104200D89005360636072A06AE2AEF08F02CEFAE
:1010520008F021EF08F00550035C06500458D8A0B0
:1010620035EF08F037EF08F03BEF08F00550035E6C
:101072000650045AD89006320532072E2CEF08F09B
:101082000850D8B447EF08F049EF08F04DEF08F0E8
:10109200036C041ED8B0042A03C003F004C004F099
:1010A20012000550D8B458EF08F05AEF08F062EF7A
:1010B20008F00550D8A460EF08F062EF08F067EF7F
:1010C20008F0035045EC0AF0A6EF08F00550D96E7F
:1010D200DA6A090ED926DE50DE10D8B473EF08F0B2
:1010E20075EF08F08EEF08F00550D96EDA6A090E36
:1010F200D9260550E16EE26A020EE126DE50E65C78
:10110200E650800A0A6EDE50800A0A58D8B08CEF88
:1011120008F08EEF08F0A6EF08F00550D96EDA6AF3
:10112200020ED926DF50066E0550D96EDA6ADF50FC
:101132000624D96EDA6A03C0DFFF0550D96EDA6A77
:10114200020ED926DE2A000EDD2212009692969019
:101152009598959A959C959E000E58EC09F01A0E5A
:10116200066EF80EE82EFED7062EFCD700D0030E30
:1011720018EC0AF0070E066E7D0EE82EFED7062E3C
:10118200FCD70000030E18EC0AF00F0E066E480E94
:10119200E82EFED7062EFCD7030E18EC0AF0020E3C
:1011A20018EC0AF0020E18EC0AF0080E18EC0AF01D
:1011B200000E18EC0AF00C0E18EC0AF0000E18ECF7
:1011C2000AF0060E18EC0AF03BEC0AF01200000ED0
:1011D2000C6E000E0B6E08EF09F00B500724096E1F
:1011E2000C5008200A6E09C0F6FF0AC0F7FFF86A21
:1011F200070EF76403D00800F55005D0F6CFE1FFE3
:10120200F7CFE2FFE750A5EC09F00B4A0C2A0B508E
:101212000724096E0C5008200A6E09C0F6FF0AC0A6
:10122200F7FFF86A070EF76403D00800F55005D0FF
:10123200F6CFE1FFF7CFE2FFE7500009D8A424EF91
:1012420009F026EF09F0EEEF08F0120081BA2CEF58
:1012520009F02EEF09F037EF09F0898C81AA34EFFB
:1012620009F036EF09F02FEF09F0899C81B23CEFCB
:1012720009F03EEF09F047EF09F08C8681A244EFB6
:1012820009F046EF09F03FEF09F08C9680B64CEF7B
:1012920009F04EEF09F057EF09F08B8280A654EF68
:1012A20009F056EF09F04FEF09F08B921200036E2E
:1012B20003A05EEF09F060EF09F063EF09F08C889C
:1012C20064EF09F08C9803A269EF09F06BEF09F063
:1012D2006EEF09F08C8A6FEF09F08C9A03A474EF19
:1012E20009F076EF09F079EF09F08C8C7AEF09F0CA
:1012F2008C9C03A67FEF09F081EF09F084EF09F0DF
:101302008C8E85EF09F08C9E120019C01BF092EFB3
:1013120009F018C00DF01B0E0E6E1AC00FF055EC3E
:1013220006F01BC0F6FF080EF76E0800F550000924
:10133200D8A49EEF09F0A0EF09F08AEF09F0000EA1
:10134200196E000E186E1200066E06500F0B046E18
:101352000650F00B056E8D8205380F0B58EC09F024
:101362008D800D0EE82EFED700008D90045058ECB3
:1013720009F08D800D0EE82EFED700008D90120030
:101382001E0E206E1CC021F0000E246E000E236E75
:10139200000E2B6E000E2A6E210E186E1DC019F063
:1013A200200E1A6E86EC09F01C502324D96EDA6ADC
:1013B200DF6A12000ABEE0EF09F0E2EF09F0E8EF9F
:1013C20009F009C009F00AC00AF0F4EF09F009C0F7
:1013D2000BF00AC00CF00B1E0C1E0B4A0C2A0BC0A1
:1013E20009F00CC00AF0120000EE60F0200EEE6A66
:1013F200E806FDE100EE46F00C0EEE6AE806FDE1BD
:1014020052905292000EF86E000129EF04F02E0E57
:101412001C6E4D0E1D6E2CC01EF02DC01FF0C1ECB7
:1014220009F02E0E076E086AE8EC08F01200056E4D
:101432008D92055058EC09F08D80060E046E300E28
:10144200E82EFED7042EFCD700D08D9012000F0E8E
:10145200C11293680F0E926E896A956A966A8D6AB6
:10146200946A948E1200F29EF29CF296F290D09EB2
:10147200F1901200000E18EC0AF0010E18EC0AF0BE
:0A1482001200060052921100120041
:020000040030CA
:0E0000000008191EFF00A0FF0FC00FE00F4008
:00000001FF
