:0400000007EF00F016
:0A000800018229ED0AF077EF0AF0FB
:10080000004167617272616E646F207069657A6120
:10081000005069657A6120656E2063696E746100BD
:10082000506C61746F20726F74617469766F0049E7
:100830006E696369616C697A616E646F00436F6EA3
:100840006669677572616E646F00456E7472656784
:10085000616E646F004D4554414C49434100424C28
:10086000414E4341004E454752410053544152547A
:10087000004E4144410020423A00204E3A004D3A99
:050880000025640000EA
:10088600456A000E446E8AEC0AF052EC09F0000E3E
:10089600ABEC0AF0040E426E3E0EE82EFED7422E58
:1008A600FCD70E0EABEC0AF0010E046E010E85ECC1
:1008B60007F0ACEC05F0A30E426E550EE82EFED7FF
:1008C600422EFCD70000010E4B6EACEC05F090EC0E
:1008D60009F0020E436E450E426EAA0EE82EFED7B2
:1008E600422EFCD7432EFAD7020E4B6EACEC05F027
:1008F60081A080EF04F082EF04F07BEF04F081A08A
:1009060002D0848401D08494D08EF19CF28EF2823F
:10091600030E4B6EACEC05F08C8082BE95EF04F0B6
:1009260097EF04F090EF04F08C90040E4B6EACEC55
:1009360005F08C8481B4A2EF04F0A4EF04F09DEFDF
:1009460004F08C94020E436E450E426EAA0EE82EFB
:10095600FED7422EFCD7432EFAD7A30E426E550E73
:10096600E82EFED7422EFCD700008988020E436E81
:10097600450E426EAA0EE82EFED7422EFCD7432E17
:10098600FAD7898A81B8CAEF04F0CCEF04F0C5EF34
:1009960004F0899881B6D2EF04F0D4EF04F0CDEFDD
:1009A60004F08C8681B2DAEF04F0DCEF04F0D5EFC8
:1009B60004F089888C96020E436E450E426EAA0E8E
:1009C600E82EFED7422EFCD7432EFAD7020E436EF0
:1009D600450E426EAA0EE82EFED7422EFCD7432EB7
:1009E600FAD7899A81B8FAEF04F0FCEF04F0F5EF34
:1009F60004F0050E4B6EACEC05F0899881B606EF57
:100A060005F008EF05F001EF05F0898C38EF05F0E9
:100A160080B210EF05F012EF05F014EF05F0010EAD
:100A26004C6E81AA19EF05F01BEF05F014EF05F0E7
:100A36002FEF05F080B222EF05F024EF05F026EF48
:100A460005F0010E4C6E81AE2BEF05F02DEF05F093
:100A56002FEF05F0010E4E6E81BA34EF05F036EF3A
:100A660005F01DEF05F0444A452A45BE44EF05F062
:100A7600455009E1020E445CD8A044EF05F046EF6C
:100A860005F00BEF05F04E04D8A44CEF05F04EEF41
:100A960005F04FEF05F0502A4C04D8A455EF05F0A9
:100AA60057EF05F058EF05F04F2A4C50D8A45EEFEB
:100AB60005F060EF05F069EF05F04E50D8A466EF3B
:100AC60005F068EF05F069EF05F0512A899C060EDE
:100AD6004B6EACEC05F08B8080B474EF05F076EFCE
:100AE60005F06FEF05F08B90ACEC05F08B8C020EE9
:100AF600436E450E426EAA0EE82EFED7422EFCD756
:100B0600432EFAD7020E436E450E426EAA0EE82E0B
:100B1600FED7422EFCD7432EFAD78B8280B696EFAD
:100B260005F098EF05F091EF05F08B92A30E426E5B
:100B3600550EE82EFED7422EFCD700008B9C4C6A41
:100B46004E6A4D6A456A000E446E7BEF04F007EF6D
:100B560000F0B7EC0AF0010E046E010E85EC07F00A
:100B66004B50D8A4B9EF05F0BBEF05F0C3EF05F085
:100B76003D0E066E0650D8A4080E076E14EC09F05A
:100B86004B04D8A4C9EF05F0CBEF05F0D3EF05F081
:100B96002F0E066E0650D8A4080E076E14EC09F048
:100BA600020E4B18D8A4DAEF05F0DCEF05F0E4EFFF
:100BB60005F06B0E066E0650D8A4080E076E14ECF0
:100BC60009F0030E4B18D8A4EBEF05F0EDEF05F096
:100BD600F5EF05F0110E066E0650D8A4080E076E46
:100BE60014EC09F0040E4B18D8A4FCEF05F0FEEF48
:100BF60005F006EF06F0010E066E0650D8A4080EA4
:100C0600076E14EC09F0050E4B18D8A40DEF06F08C
:100C16000FEF06F017EF06F0200E066E0650D8A46A
:100C2600080E076E14EC09F0060E4B18D8A41EEF3A
:100C360006F020EF06F028EF06F04A0E066E065084
:100C4600D8A4080E076E14EC09F0010E046E020E0D
:100C560085EC07F0050E4B6433EF06F035EF06F032
:100C66006FEF06F04E04D8A43BEF06F03DEF06F01A
:100C760045EF06F0650E066E0650D8A4080E076E00
:100C860014EC09F04C04D8A44BEF06F04DEF06F037
:100C960055EF06F0550E066E0650D8A4080E076EE0
:100CA60014EC09F04C50D8A45BEF06F05DEF06F0AB
:100CB60077EF06F04E50D8A463EF06F065EF06F026
:100CC60077EF06F05E0E066E0650D8A4080E076E85
:100CD60014EC09F077EF06F0710E066E0650D8A4F4
:100CE600080E076E14EC09F0090EABEC0AF0040EC0
:100CF600416E3E0EE82EFED7412EFCD7000EABEC21
:100D06000AF07E0E066E0650D8A4080E076E14EC86
:100D160009F04FC02BF02C6A9BEC0AF0760E066E9B
:100D26000650D8A4080E076E14EC09F051C02BF03B
:100D36002C6A9BEC0AF07A0E066E0650D8A4080EB2
:100D4600076E14EC09F050C02BF02C6A9BEC0AF0ED
:100D560012000D50D96EDA6ADFCFF6FF080EF76E75
:100D66000800F550250AD8A4BBEF06F0BDEF06F043
:100D760073EF07F00D50D96EDA6ADF2A476A000E64
:100D8600466E46C04AF0486849680D50D96EDA6A20
:100D9600DF50116E11C0F6FF080EF76E0800F55011
:100DA600640AD8B4D9EF06F0DBEF06F0E9EF06F0F7
:100DB60011C0F6FF080EF76E0800F550690AD8A4B0
:100DC600E7EF06F0E9EF06F06DEF07F00E50D96E8B
:100DD600DA6A020EDF26DF5CD96EDA6ADECF12F03F
:100DE600DECF13F00D50D96EDA6A1128DF6E200EB1
:100DF600166E13BE01EF07F004EF07F0010E05EFC4
:100E060007F0000E106E16061650600FD96EDA6ADD
:100E160012C002F013C003F0056A0A0E046E68ECF5
:100E260008F002C008F003C009F045EC0AF00850CB
:100E3600300FDF6E12C002F013C003F0056A0A0E0F
:100E4600046E08EC08F002C012F003C013F0125052
:100E56001310D8B431EF07F033EF07F03BEF07F08C
:100E66001650D8A439EF07F03BEF07F006EF07F06E
:100E76001650D8B441EF07F043EF07F062EF07F0E2
:100E86001050D8B449EF07F04BEF07F062EF07F0C8
:100E960016061650600FD96EDA6A2D0EDF6E62EFF7
:100EA60007F01650600FD96EDA6ADF500F6E0F50DA
:100EB600026E036A0CC004F0BFEC08F0162A200E7E
:100EC6001618D8A469EF07F06BEF07F054EF07F098
:100ED60084EF07F00D50D96EDA6ADF2A84EF07F047
:100EE6000D50D96EDA6ADFCFF6FF080EF76E0800EE
:100EF600F550026E036A0CC004F0BFEC08F06DEF0B
:100F060007F01200066E0604D8A48CEF07F08EEFE9
:100F160007F0A6EF07F004507F0F096E09380F0B94
:100F2600076E09500F0B086E0750ABEC0AF0040E63
:100F3600056E3E0EE82EFED7052EFCD70850ABEC0C
:100F46000AF007EF08F0020E0618D8A4ADEF07F076
:100F5600AFEF07F0C7EF07F00450BF0F096E09386F
:100F66000F0B076E09500F0B086E0750ABEC0AF01B
:100F7600040E056E3E0EE82EFED7052EFCD7085051
:100F8600ABEC0AF007EF08F0030E0618D8A4CEEF74
:100F960007F0D0EF07F0E8EF07F00450930F096E63
:100FA60009380F0B076E09500F0B086E0750ABEC94
:100FB6000AF0040E056E3E0EE82EFED7052EFCD76F
:100FC6000850ABEC0AF007EF08F0040E0618D8A498
:100FD600EFEF07F0F1EF07F007EF08F00450D30F3B
:100FE600096E09380F0B076E09500F0B086E075074
:100FF600ABEC0AF0040E056E3E0EE82EFED7052E6B
:10100600FCD70850ABEC0AF01200076A05BE10EFD9
:1010160008F00EEF08F016EF08F0046C051ED8B0C5
:10102600052A010E076E03BE1DEF08F01BEF08F040
:1010360023EF08F0026C031ED8B0032A010E071A2C
:10104600096A000E086E04500510D8B42DEF08F09A
:101056002FEF08F057EF08F0010E066E37EF08F095
:10106600D89004360536062A05AE3CEF08F03EEF6A
:1010760008F033EF08F0D890083609360450025CC1
:1010860005500358D8A04AEF08F04CEF08F051EF8E
:1010960008F00450025E0550035A0880D8900532C5
:1010A6000432062E3EEF08F00750D8B45DEF08F084
:1010B6005FEF08F063EF08F0086C091ED8B0092A44
:1010C60008C002F009C003F01200076A03BE70EF01
:1010D60008F06EEF08F076EF08F0026C031ED8B049
:1010E600032A010E076E05BE7DEF08F07BEF08F0C0
:1010F60081EF08F0046C051ED8B0052A04500510CF
:10110600D8B488EF08F08AEF08F0AEEF08F0010EC9
:10111600066E92EF08F0D89004360536062A05AE1C
:1011260097EF08F099EF08F08EEF08F00450025C94
:1011360005500358D8A0A2EF08F0A4EF08F0A8EFD6
:1011460008F00450025E0550035AD8900532043266
:10115600062E99EF08F00750D8B4B4EF08F0B6EFB2
:1011660008F0BAEF08F0026C031ED8B0032A02C0DA
:1011760002F003C003F012000450D8B4C5EF08F023
:10118600C7EF08F0CFEF08F00450D8A4CDEF08F071
:10119600CFEF08F0D4EF08F00250BEEC0AF013EFE0
:1011A60009F00450D96EDA6A090ED926DE50DE102F
:1011B600D8B4E0EF08F0E2EF08F0FBEF08F00450D7
:1011C600D96EDA6A090ED9260450E16EE26A020E79
:1011D600E126DE50E65CE650800A096EDE50800AA3
:1011E6000958D8B0F9EF08F0FBEF08F013EF09F053
:1011F6000450D96EDA6A020ED926DF50056E045005
:10120600D96EDA6ADF500524D96EDA6A02C0DFFFCA
:101216000450D96EDA6A020ED926DE2A000EDD22C5
:1012260012000B6A000E0A6E33EF09F00A5006240C
:10123600086E0B500720096E08C0F6FF09C0F7FFBD
:10124600F86A070EF76403D00800F55005D0F6CF0C
:10125600E1FFF7CFE2FFE7500DEC0AF00A4A0B2A4E
:101266000A500624086E0B500720096E08C0F6FFC8
:1012760009C0F7FFF86A070EF76403D00800F550B7
:1012860005D0F6CFE1FFF7CFE2FFE7500009D8A47B
:101296004FEF09F051EF09F019EF09F0120096909F
:1012A60096929598959A959C959E000EC1EC09F09C
:1012B600070E046E7D0EE82EFED7042EFCD7000026
:1012C600030EABEC0AF0FA0E00D0E82EFDD7030EA3
:1012D600ABEC0AF0040E046E910EE82EFED7042E37
:1012E600FCD70000030EABEC0AF0020EABEC0AF0E2
:1012F600020EABEC0AF0080EABEC0AF0000EABECFB
:101306000AF00C0EABEC0AF0000EABEC0AF0060E7F
:10131600ABEC0AF0B7EC0AF0120081AA95EF09F0DF
:1013260097EF09F0A0EF09F0898C81BA9DEF09F0DB
:101336009FEF09F098EF09F0899C81A2A5EF09F0CB
:10134600A7EF09F0B0EF09F08C8681B2ADEF09F096
:10135600AFEF09F0A8EF09F08C9680A6B5EF09F07B
:10136600B7EF09F0C0EF09F08B8280B6BDEF09F048
:10137600BFEF09F0B8EF09F08B921200026E02A0DF
:10138600C7EF09F0C9EF09F0CCEF09F08C88CDEF73
:1013960009F08C9802A2D2EF09F0D4EF09F0D7EF4A
:1013A60009F08C8AD8EF09F08C9A02A4DDEF09F0D7
:1013B600DFEF09F0E2EF09F08C8CE3EF09F08C9C8B
:1013C60002A6E8EF09F0EAEF09F0EDEF09F08C8EDE
:1013D600EEEF09F08C9E120018C01AF0FBEF09F030
:1013E60017C00CF01A0E0D6E19C00EF0ACEC06F01C
:1013F6001AC0F6FF080EF76E0800F5500009D8A4CB
:1014060007EF0AF009EF0AF0F3EF09F0186A000E89
:10141600176E1200056E05500F0B036E0550F00B8C
:10142600046E8D8004380F0BC1EC09F08D82030E1B
:10143600E82EFED700008D920350C1EC09F08D8294
:10144600030EE82EFED700008D921200060081A042
:1014560002D0848401D0849436EF0AF081A002D0B1
:10146600848401D0849481A03BEF0AF03DEF0AF01A
:1014760031EF0AF081A002D0848401D08494F292E4
:101486000192110009BE4AEF0AF04CEF0AF052EF42
:101496000AF008C008F009C009F05EEF0AF008C0BB
:1014A6000AF009C00BF00A1E0B1E0A4A0B2A0AC0D4
:1014B60008F00BC009F012001D0E1F6E1BC020F0B5
:1014C600236A000E226E2A6A000E296E200E176EFF
:1014D6001CC018F01F0E196EEFEC09F01B502224E9
:1014E600D96EDA6ADF6A120000EE60F0200EEE6A4C
:1014F600E806FDE100EE46F00C0EEE6AE806FDE1B8
:1015060001900192000EF86E000143EF04F00F0EF9
:10151600C11293680F0E926E896A956A966A8D6AF1
:10152600800E946E896A8D6A8A6A8B6A8C6A12004A
:101536002D0E1B6E810E1C6E2BC01DF02CC01EF0D6
:101546005FEC0AF02D0E066E076A14EC09F0120025
:10155600036E8D900350C1EC09F08D82C80E00D049
:10156600E82EFDD78D921200000EABEC0AF0010EAC
:08157600ABEC0AF012001200B8
:020000040030CA
:0E0000000008191EFF02A0FF0FC00FE00F4006
:00000001FF
